{
	"_format": "hh-sol-artifact-1",
	"contractName": "Collectible",
	"sourceName": "contracts/Collectible.sol",
	"abi": [
		{
			"inputs": [],
			"stateMutability": "nonpayable",
			"type": "constructor"
		},
		{
			"anonymous": false,
			"inputs": [
				{
					"indexed": true,
					"internalType": "address",
					"name": "owner",
					"type": "address"
				},
				{
					"indexed": true,
					"internalType": "address",
					"name": "approved",
					"type": "address"
				},
				{
					"indexed": true,
					"internalType": "uint256",
					"name": "tokenId",
					"type": "uint256"
				}
			],
			"name": "Approval",
			"type": "event"
		},
		{
			"anonymous": false,
			"inputs": [
				{
					"indexed": true,
					"internalType": "address",
					"name": "owner",
					"type": "address"
				},
				{
					"indexed": true,
					"internalType": "address",
					"name": "operator",
					"type": "address"
				},
				{
					"indexed": false,
					"internalType": "bool",
					"name": "approved",
					"type": "bool"
				}
			],
			"name": "ApprovalForAll",
			"type": "event"
		},
		{
			"anonymous": false,
			"inputs": [
				{
					"indexed": true,
					"internalType": "address",
					"name": "from",
					"type": "address"
				},
				{
					"indexed": true,
					"internalType": "address",
					"name": "to",
					"type": "address"
				},
				{
					"indexed": true,
					"internalType": "uint256",
					"name": "tokenId",
					"type": "uint256"
				}
			],
			"name": "Transfer",
			"type": "event"
		},
		{
			"inputs": [
				{
					"internalType": "address",
					"name": "to",
					"type": "address"
				},
				{
					"internalType": "uint256",
					"name": "tokenId",
					"type": "uint256"
				}
			],
			"name": "approve",
			"outputs": [],
			"stateMutability": "nonpayable",
			"type": "function"
		},
		{
			"inputs": [
				{
					"internalType": "address",
					"name": "owner",
					"type": "address"
				}
			],
			"name": "balanceOf",
			"outputs": [
				{
					"internalType": "uint256",
					"name": "",
					"type": "uint256"
				}
			],
			"stateMutability": "view",
			"type": "function"
		},
		{
			"inputs": [
				{
					"internalType": "uint256",
					"name": "tokenId",
					"type": "uint256"
				}
			],
			"name": "getApproved",
			"outputs": [
				{
					"internalType": "address",
					"name": "",
					"type": "address"
				}
			],
			"stateMutability": "view",
			"type": "function"
		},
		{
			"inputs": [
				{
					"internalType": "address",
					"name": "owner",
					"type": "address"
				},
				{
					"internalType": "address",
					"name": "operator",
					"type": "address"
				}
			],
			"name": "isApprovedForAll",
			"outputs": [
				{
					"internalType": "bool",
					"name": "",
					"type": "bool"
				}
			],
			"stateMutability": "view",
			"type": "function"
		},
		{
			"inputs": [
				{
					"internalType": "address",
					"name": "recipient",
					"type": "address"
				},
				{
					"internalType": "string",
					"name": "tokenURI",
					"type": "string"
				}
			],
			"name": "mintNFT",
			"outputs": [
				{
					"internalType": "uint256",
					"name": "",
					"type": "uint256"
				}
			],
			"stateMutability": "nonpayable",
			"type": "function"
		},
		{
			"inputs": [],
			"name": "name",
			"outputs": [
				{
					"internalType": "string",
					"name": "",
					"type": "string"
				}
			],
			"stateMutability": "view",
			"type": "function"
		},
		{
			"inputs": [
				{
					"internalType": "uint256",
					"name": "tokenId",
					"type": "uint256"
				}
			],
			"name": "ownerOf",
			"outputs": [
				{
					"internalType": "address",
					"name": "",
					"type": "address"
				}
			],
			"stateMutability": "view",
			"type": "function"
		},
		{
			"inputs": [
				{
					"internalType": "address",
					"name": "from",
					"type": "address"
				},
				{
					"internalType": "address",
					"name": "to",
					"type": "address"
				},
				{
					"internalType": "uint256",
					"name": "tokenId",
					"type": "uint256"
				}
			],
			"name": "safeTransferFrom",
			"outputs": [],
			"stateMutability": "nonpayable",
			"type": "function"
		},
		{
			"inputs": [
				{
					"internalType": "address",
					"name": "from",
					"type": "address"
				},
				{
					"internalType": "address",
					"name": "to",
					"type": "address"
				},
				{
					"internalType": "uint256",
					"name": "tokenId",
					"type": "uint256"
				},
				{
					"internalType": "bytes",
					"name": "_data",
					"type": "bytes"
				}
			],
			"name": "safeTransferFrom",
			"outputs": [],
			"stateMutability": "nonpayable",
			"type": "function"
		},
		{
			"inputs": [
				{
					"internalType": "address",
					"name": "operator",
					"type": "address"
				},
				{
					"internalType": "bool",
					"name": "approved",
					"type": "bool"
				}
			],
			"name": "setApprovalForAll",
			"outputs": [],
			"stateMutability": "nonpayable",
			"type": "function"
		},
		{
			"inputs": [
				{
					"internalType": "bytes4",
					"name": "interfaceId",
					"type": "bytes4"
				}
			],
			"name": "supportsInterface",
			"outputs": [
				{
					"internalType": "bool",
					"name": "",
					"type": "bool"
				}
			],
			"stateMutability": "view",
			"type": "function"
		},
		{
			"inputs": [],
			"name": "symbol",
			"outputs": [
				{
					"internalType": "string",
					"name": "",
					"type": "string"
				}
			],
			"stateMutability": "view",
			"type": "function"
		},
		{
			"inputs": [
				{
					"internalType": "uint256",
					"name": "tokenId",
					"type": "uint256"
				}
			],
			"name": "tokenURI",
			"outputs": [
				{
					"internalType": "string",
					"name": "",
					"type": "string"
				}
			],
			"stateMutability": "view",
			"type": "function"
		},
		{
			"inputs": [
				{
					"internalType": "address",
					"name": "from",
					"type": "address"
				},
				{
					"internalType": "address",
					"name": "to",
					"type": "address"
				},
				{
					"internalType": "uint256",
					"name": "tokenId",
					"type": "uint256"
				}
			],
			"name": "transferFrom",
			"outputs": [],
			"stateMutability": "nonpayable",
			"type": "function"
		}
	],
	"bytecode": "0x60806040523480156200001157600080fd5b506040518060400160405280600881526020017f417274576f726b7a0000000000000000000000000000000000000000000000008152506040518060400160405280600381526020017f41575a0000000000000000000000000000000000000000000000000000000000815250816000908051906020019062000096929190620000b8565b508060019080519060200190620000af929190620000b8565b505050620001cd565b828054620000c69062000168565b90600052602060002090601f016020900481019282620000ea576000855562000136565b82601f106200010557805160ff191683800117855562000136565b8280016001018555821562000136579182015b828111156200013557825182559160200191906001019062000118565b5b50905062000145919062000149565b5090565b5b80821115620001645760008160009055506001016200014a565b5090565b600060028204905060018216806200018157607f821691505b602082108114156200019857620001976200019e565b5b50919050565b7f4e487b7100000000000000000000000000000000000000000000000000000000600052602260045260246000fd5b612b9a80620001dd6000396000f3fe608060405234801561001057600080fd5b50600436106100ea5760003560e01c806370a082311161008c578063b88d4fde11610066578063b88d4fde1461025b578063c87b56dd14610277578063e985e9c5146102a7578063eacabe14146102d7576100ea565b806370a08231146101f157806395d89b4114610221578063a22cb4651461023f576100ea565b8063095ea7b3116100c8578063095ea7b31461016d57806323b872dd1461018957806342842e0e146101a55780636352211e146101c1576100ea565b806301ffc9a7146100ef57806306fdde031461011f578063081812fc1461013d575b600080fd5b61010960048036038101906101049190611c47565b610307565b604051610116919061204d565b60405180910390f35b6101276103e9565b6040516101349190612068565b60405180910390f35b61015760048036038101906101529190611c99565b61047b565b6040516101649190611fe6565b60405180910390f35b61018760048036038101906101829190611c0b565b610500565b005b6101a3600480360381019061019e9190611ab1565b610618565b005b6101bf60048036038101906101ba9190611ab1565b610678565b005b6101db60048036038101906101d69190611c99565b610698565b6040516101e89190611fe6565b60405180910390f35b61020b60048036038101906102069190611a4c565b61074a565b604051610218919061228a565b60405180910390f35b610229610802565b6040516102369190612068565b60405180910390f35b61025960048036038101906102549190611b7b565b610894565b005b61027560048036038101906102709190611b00565b6108aa565b005b610291600480360381019061028c9190611c99565b61090c565b60405161029e9190612068565b60405180910390f35b6102c160048036038101906102bc9190611a75565b610a5e565b6040516102ce919061204d565b60405180910390f35b6102f160048036038101906102ec9190611bb7565b610af2565b6040516102fe919061228a565b60405180910390f35b60007f80ac58cd000000000000000000000000000000000000000000000000000000007bffffffffffffffffffffffffffffffffffffffffffffffffffffffff1916827bffffffffffffffffffffffffffffffffffffffffffffffffffffffff191614806103d257507f5b5e139f000000000000000000000000000000000000000000000000000000007bffffffffffffffffffffffffffffffffffffffffffffffffffffffff1916827bffffffffffffffffffffffffffffffffffffffffffffffffffffffff1916145b806103e257506103e182610b2a565b5b9050919050565b6060600080546103f8906124e0565b80601f0160208091040260200160405190810160405280929190818152602001828054610424906124e0565b80156104715780601f1061044657610100808354040283529160200191610471565b820191906000526020600020905b81548152906001019060200180831161045457829003601f168201915b5050505050905090565b600061048682610b94565b6104c5576040517f08c379a00000000000000000000000000000000000000000000000000000000081526004016104bc9061220a565b60405180910390fd5b6004600083815260200190815260200160002060009054906101000a900473ffffffffffffffffffffffffffffffffffffffff169050919050565b600061050b82610698565b90508073ffffffffffffffffffffffffffffffffffffffff168373ffffffffffffffffffffffffffffffffffffffff16141561057c576040517f08c379a00000000000000000000000000000000000000000000000000000000081526004016105739061224a565b60405180910390fd5b8073ffffffffffffffffffffffffffffffffffffffff1661059b610c00565b73ffffffffffffffffffffffffffffffffffffffff1614806105ca57506105c9816105c4610c00565b610a5e565b5b610609576040517f08c379a00000000000000000000000000000000000000000000000000000000081526004016106009061214a565b60405180910390fd5b6106138383610c08565b505050565b610629610623610c00565b82610cc1565b610668576040517f08c379a000000000000000000000000000000000000000000000000000000000815260040161065f9061226a565b60405180910390fd5b610673838383610d9f565b505050565b610693838383604051806020016040528060008152506108aa565b505050565b6000806002600084815260200190815260200160002060009054906101000a900473ffffffffffffffffffffffffffffffffffffffff169050600073ffffffffffffffffffffffffffffffffffffffff168173ffffffffffffffffffffffffffffffffffffffff161415610741576040517f08c379a00000000000000000000000000000000000000000000000000000000081526004016107389061218a565b60405180910390fd5b80915050919050565b60008073ffffffffffffffffffffffffffffffffffffffff168273ffffffffffffffffffffffffffffffffffffffff1614156107bb576040517f08c379a00000000000000000000000000000000000000000000000000000000081526004016107b29061216a565b60405180910390fd5b600360008373ffffffffffffffffffffffffffffffffffffffff1673ffffffffffffffffffffffffffffffffffffffff168152602001908152602001600020549050919050565b606060018054610811906124e0565b80601f016020809104026020016040519081016040528092919081815260200182805461083d906124e0565b801561088a5780601f1061085f5761010080835404028352916020019161088a565b820191906000526020600020905b81548152906001019060200180831161086d57829003601f168201915b5050505050905090565b6108a661089f610c00565b8383611006565b5050565b6108bb6108b5610c00565b83610cc1565b6108fa576040517f08c379a00000000000000000000000000000000000000000000000000000000081526004016108f19061226a565b60405180910390fd5b61090684848484611173565b50505050565b606061091782610b94565b610956576040517f08c379a000000000000000000000000000000000000000000000000000000000815260040161094d906121ea565b60405180910390fd5b6000600660008481526020019081526020016000208054610976906124e0565b80601f01602080910402602001604051908101604052809291908181526020018280546109a2906124e0565b80156109ef5780601f106109c4576101008083540402835291602001916109ef565b820191906000526020600020905b8154815290600101906020018083116109d257829003601f168201915b505050505090506000610a006111cf565b9050600081511415610a16578192505050610a59565b600082511115610a4b578082604051602001610a33929190611fc2565b60405160208183030381529060405292505050610a59565b610a54846111e6565b925050505b919050565b6000600560008473ffffffffffffffffffffffffffffffffffffffff1673ffffffffffffffffffffffffffffffffffffffff16815260200190815260200160002060008373ffffffffffffffffffffffffffffffffffffffff1673ffffffffffffffffffffffffffffffffffffffff16815260200190815260200160002060009054906101000a900460ff16905092915050565b6000610afe600761128d565b6000610b0a60076112a3565b9050610b1684826112b1565b610b20818461148b565b8091505092915050565b60007f01ffc9a7000000000000000000000000000000000000000000000000000000007bffffffffffffffffffffffffffffffffffffffffffffffffffffffff1916827bffffffffffffffffffffffffffffffffffffffffffffffffffffffff1916149050919050565b60008073ffffffffffffffffffffffffffffffffffffffff166002600084815260200190815260200160002060009054906101000a900473ffffffffffffffffffffffffffffffffffffffff1673ffffffffffffffffffffffffffffffffffffffff1614159050919050565b600033905090565b816004600083815260200190815260200160002060006101000a81548173ffffffffffffffffffffffffffffffffffffffff021916908373ffffffffffffffffffffffffffffffffffffffff160217905550808273ffffffffffffffffffffffffffffffffffffffff16610c7b83610698565b73ffffffffffffffffffffffffffffffffffffffff167f8c5be1e5ebec7d5bd14f71427d1e84f3dd0314c0f7b2291e5b200ac8c7c3b92560405160405180910390a45050565b6000610ccc82610b94565b610d0b576040517f08c379a0000000000000000000000000000000000000000000000000000000008152600401610d029061212a565b60405180910390fd5b6000610d1683610698565b90508073ffffffffffffffffffffffffffffffffffffffff168473ffffffffffffffffffffffffffffffffffffffff161480610d585750610d578185610a5e565b5b80610d9657508373ffffffffffffffffffffffffffffffffffffffff16610d7e8461047b565b73ffffffffffffffffffffffffffffffffffffffff16145b91505092915050565b8273ffffffffffffffffffffffffffffffffffffffff16610dbf82610698565b73ffffffffffffffffffffffffffffffffffffffff1614610e15576040517f08c379a0000000000000000000000000000000000000000000000000000000008152600401610e0c906120aa565b60405180910390fd5b600073ffffffffffffffffffffffffffffffffffffffff168273ffffffffffffffffffffffffffffffffffffffff161415610e85576040517f08c379a0000000000000000000000000000000000000000000000000000000008152600401610e7c906120ea565b60405180910390fd5b610e908383836114ff565b610e9b600082610c08565b6001600360008573ffffffffffffffffffffffffffffffffffffffff1673ffffffffffffffffffffffffffffffffffffffff1681526020019081526020016000206000828254610eeb91906123f6565b925050819055506001600360008473ffffffffffffffffffffffffffffffffffffffff1673ffffffffffffffffffffffffffffffffffffffff1681526020019081526020016000206000828254610f42919061236f565b92505081905550816002600083815260200190815260200160002060006101000a81548173ffffffffffffffffffffffffffffffffffffffff021916908373ffffffffffffffffffffffffffffffffffffffff160217905550808273ffffffffffffffffffffffffffffffffffffffff168473ffffffffffffffffffffffffffffffffffffffff167fddf252ad1be2c89b69c2b068fc378daa952ba7f163c4a11628f55a4df523b3ef60405160405180910390a4611001838383611504565b505050565b8173ffffffffffffffffffffffffffffffffffffffff168373ffffffffffffffffffffffffffffffffffffffff161415611075576040517f08c379a000000000000000000000000000000000000000000000000000000000815260040161106c9061210a565b60405180910390fd5b80600560008573ffffffffffffffffffffffffffffffffffffffff1673ffffffffffffffffffffffffffffffffffffffff16815260200190815260200160002060008473ffffffffffffffffffffffffffffffffffffffff1673ffffffffffffffffffffffffffffffffffffffff16815260200190815260200160002060006101000a81548160ff0219169083151502179055508173ffffffffffffffffffffffffffffffffffffffff168373ffffffffffffffffffffffffffffffffffffffff167f17307eab39ab6107e8899845ad3d59bd9653f200f220920489ca2b5937696c3183604051611166919061204d565b60405180910390a3505050565b61117e848484610d9f565b61118a84848484611509565b6111c9576040517f08c379a00000000000000000000000000000000000000000000000000000000081526004016111c09061208a565b60405180910390fd5b50505050565b606060405180602001604052806000815250905090565b60606111f182610b94565b611230576040517f08c379a00000000000000000000000000000000000000000000000000000000081526004016112279061222a565b60405180910390fd5b600061123a6111cf565b9050600081511161125a5760405180602001604052806000815250611285565b80611264846116a0565b604051602001611275929190611fc2565b6040516020818303038152906040525b915050919050565b6001816000016000828254019250508190555050565b600081600001549050919050565b600073ffffffffffffffffffffffffffffffffffffffff168273ffffffffffffffffffffffffffffffffffffffff161415611321576040517f08c379a0000000000000000000000000000000000000000000000000000000008152600401611318906121ca565b60405180910390fd5b61132a81610b94565b1561136a576040517f08c379a0000000000000000000000000000000000000000000000000000000008152600401611361906120ca565b60405180910390fd5b611376600083836114ff565b6001600360008473ffffffffffffffffffffffffffffffffffffffff1673ffffffffffffffffffffffffffffffffffffffff16815260200190815260200160002060008282546113c6919061236f565b92505081905550816002600083815260200190815260200160002060006101000a81548173ffffffffffffffffffffffffffffffffffffffff021916908373ffffffffffffffffffffffffffffffffffffffff160217905550808273ffffffffffffffffffffffffffffffffffffffff16600073ffffffffffffffffffffffffffffffffffffffff167fddf252ad1be2c89b69c2b068fc378daa952ba7f163c4a11628f55a4df523b3ef60405160405180910390a461148760008383611504565b5050565b61149482610b94565b6114d3576040517f08c379a00000000000000000000000000000000000000000000000000000000081526004016114ca906121aa565b60405180910390fd5b806006600084815260200190815260200160002090805190602001906114fa929190611870565b505050565b505050565b505050565b600061152a8473ffffffffffffffffffffffffffffffffffffffff1661184d565b15611693578373ffffffffffffffffffffffffffffffffffffffff1663150b7a02611553610c00565b8786866040518563ffffffff1660e01b81526004016115759493929190612001565b602060405180830381600087803b15801561158f57600080fd5b505af19250505080156115c057506040513d601f19601f820116820180604052508101906115bd9190611c70565b60015b611643573d80600081146115f0576040519150601f19603f3d011682016040523d82523d6000602084013e6115f5565b606091505b5060008151141561163b576040517f08c379a00000000000000000000000000000000000000000000000000000000081526004016116329061208a565b60405180910390fd5b805181602001fd5b63150b7a0260e01b7bffffffffffffffffffffffffffffffffffffffffffffffffffffffff1916817bffffffffffffffffffffffffffffffffffffffffffffffffffffffff191614915050611698565b600190505b949350505050565b606060008214156116e8576040518060400160405280600181526020017f30000000000000000000000000000000000000000000000000000000000000008152509050611848565b600082905060005b6000821461171a57808061170390612543565b915050600a8261171391906123c5565b91506116f0565b60008167ffffffffffffffff81111561175c577f4e487b7100000000000000000000000000000000000000000000000000000000600052604160045260246000fd5b6040519080825280601f01601f19166020018201604052801561178e5781602001600182028036833780820191505090505b5090505b60008514611841576001826117a791906123f6565b9150600a856117b6919061258c565b60306117c2919061236f565b60f81b8183815181106117fe577f4e487b7100000000000000000000000000000000000000000000000000000000600052603260045260246000fd5b60200101907effffffffffffffffffffffffffffffffffffffffffffffffffffffffffffff1916908160001a905350600a8561183a91906123c5565b9450611792565b8093505050505b919050565b6000808273ffffffffffffffffffffffffffffffffffffffff163b119050919050565b82805461187c906124e0565b90600052602060002090601f01602090048101928261189e57600085556118e5565b82601f106118b757805160ff19168380011785556118e5565b828001600101855582156118e5579182015b828111156118e45782518255916020019190600101906118c9565b5b5090506118f291906118f6565b5090565b5b8082111561190f5760008160009055506001016118f7565b5090565b6000611926611921846122ca565b6122a5565b90508281526020810184848401111561193e57600080fd5b61194984828561249e565b509392505050565b600061196461195f846122fb565b6122a5565b90508281526020810184848401111561197c57600080fd5b61198784828561249e565b509392505050565b60008135905061199e81612b08565b92915050565b6000813590506119b381612b1f565b92915050565b6000813590506119c881612b36565b92915050565b6000815190506119dd81612b36565b92915050565b600082601f8301126119f457600080fd5b8135611a04848260208601611913565b91505092915050565b600082601f830112611a1e57600080fd5b8135611a2e848260208601611951565b91505092915050565b600081359050611a4681612b4d565b92915050565b600060208284031215611a5e57600080fd5b6000611a6c8482850161198f565b91505092915050565b60008060408385031215611a8857600080fd5b6000611a968582860161198f565b9250506020611aa78582860161198f565b9150509250929050565b600080600060608486031215611ac657600080fd5b6000611ad48682870161198f565b9350506020611ae58682870161198f565b9250506040611af686828701611a37565b9150509250925092565b60008060008060808587031215611b1657600080fd5b6000611b248782880161198f565b9450506020611b358782880161198f565b9350506040611b4687828801611a37565b925050606085013567ffffffffffffffff811115611b6357600080fd5b611b6f878288016119e3565b91505092959194509250565b60008060408385031215611b8e57600080fd5b6000611b9c8582860161198f565b9250506020611bad858286016119a4565b9150509250929050565b60008060408385031215611bca57600080fd5b6000611bd88582860161198f565b925050602083013567ffffffffffffffff811115611bf557600080fd5b611c0185828601611a0d565b9150509250929050565b60008060408385031215611c1e57600080fd5b6000611c2c8582860161198f565b9250506020611c3d85828601611a37565b9150509250929050565b600060208284031215611c5957600080fd5b6000611c67848285016119b9565b91505092915050565b600060208284031215611c8257600080fd5b6000611c90848285016119ce565b91505092915050565b600060208284031215611cab57600080fd5b6000611cb984828501611a37565b91505092915050565b611ccb8161242a565b82525050565b611cda8161243c565b82525050565b6000611ceb8261232c565b611cf58185612342565b9350611d058185602086016124ad565b611d0e81612679565b840191505092915050565b6000611d2482612337565b611d2e8185612353565b9350611d3e8185602086016124ad565b611d4781612679565b840191505092915050565b6000611d5d82612337565b611d678185612364565b9350611d778185602086016124ad565b80840191505092915050565b6000611d90603283612353565b9150611d9b8261268a565b604082019050919050565b6000611db3602583612353565b9150611dbe826126d9565b604082019050919050565b6000611dd6601c83612353565b9150611de182612728565b602082019050919050565b6000611df9602483612353565b9150611e0482612751565b604082019050919050565b6000611e1c601983612353565b9150611e27826127a0565b602082019050919050565b6000611e3f602c83612353565b9150611e4a826127c9565b604082019050919050565b6000611e62603883612353565b9150611e6d82612818565b604082019050919050565b6000611e85602a83612353565b9150611e9082612867565b604082019050919050565b6000611ea8602983612353565b9150611eb3826128b6565b604082019050919050565b6000611ecb602e83612353565b9150611ed682612905565b604082019050919050565b6000611eee602083612353565b9150611ef982612954565b602082019050919050565b6000611f11603183612353565b9150611f1c8261297d565b604082019050919050565b6000611f34602c83612353565b9150611f3f826129cc565b604082019050919050565b6000611f57602f83612353565b9150611f6282612a1b565b604082019050919050565b6000611f7a602183612353565b9150611f8582612a6a565b604082019050919050565b6000611f9d603183612353565b9150611fa882612ab9565b604082019050919050565b611fbc81612494565b82525050565b6000611fce8285611d52565b9150611fda8284611d52565b91508190509392505050565b6000602082019050611ffb6000830184611cc2565b92915050565b60006080820190506120166000830187611cc2565b6120236020830186611cc2565b6120306040830185611fb3565b81810360608301526120428184611ce0565b905095945050505050565b60006020820190506120626000830184611cd1565b92915050565b600060208201905081810360008301526120828184611d19565b905092915050565b600060208201905081810360008301526120a381611d83565b9050919050565b600060208201905081810360008301526120c381611da6565b9050919050565b600060208201905081810360008301526120e381611dc9565b9050919050565b6000602082019050818103600083015261210381611dec565b9050919050565b6000602082019050818103600083015261212381611e0f565b9050919050565b6000602082019050818103600083015261214381611e32565b9050919050565b6000602082019050818103600083015261216381611e55565b9050919050565b6000602082019050818103600083015261218381611e78565b9050919050565b600060208201905081810360008301526121a381611e9b565b9050919050565b600060208201905081810360008301526121c381611ebe565b9050919050565b600060208201905081810360008301526121e381611ee1565b9050919050565b6000602082019050818103600083015261220381611f04565b9050919050565b6000602082019050818103600083015261222381611f27565b9050919050565b6000602082019050818103600083015261224381611f4a565b9050919050565b6000602082019050818103600083015261226381611f6d565b9050919050565b6000602082019050818103600083015261228381611f90565b9050919050565b600060208201905061229f6000830184611fb3565b92915050565b60006122af6122c0565b90506122bb8282612512565b919050565b6000604051905090565b600067ffffffffffffffff8211156122e5576122e461264a565b5b6122ee82612679565b9050602081019050919050565b600067ffffffffffffffff8211156123165761231561264a565b5b61231f82612679565b9050602081019050919050565b600081519050919050565b600081519050919050565b600082825260208201905092915050565b600082825260208201905092915050565b600081905092915050565b600061237a82612494565b915061238583612494565b9250827fffffffffffffffffffffffffffffffffffffffffffffffffffffffffffffffff038211156123ba576123b96125bd565b5b828201905092915050565b60006123d082612494565b91506123db83612494565b9250826123eb576123ea6125ec565b5b828204905092915050565b600061240182612494565b915061240c83612494565b92508282101561241f5761241e6125bd565b5b828203905092915050565b600061243582612474565b9050919050565b60008115159050919050565b60007fffffffff0000000000000000000000000000000000000000000000000000000082169050919050565b600073ffffffffffffffffffffffffffffffffffffffff82169050919050565b6000819050919050565b82818337600083830152505050565b60005b838110156124cb5780820151818401526020810190506124b0565b838111156124da576000848401525b50505050565b600060028204905060018216806124f857607f821691505b6020821081141561250c5761250b61261b565b5b50919050565b61251b82612679565b810181811067ffffffffffffffff8211171561253a5761253961264a565b5b80604052505050565b600061254e82612494565b91507fffffffffffffffffffffffffffffffffffffffffffffffffffffffffffffffff821415612581576125806125bd565b5b600182019050919050565b600061259782612494565b91506125a283612494565b9250826125b2576125b16125ec565b5b828206905092915050565b7f4e487b7100000000000000000000000000000000000000000000000000000000600052601160045260246000fd5b7f4e487b7100000000000000000000000000000000000000000000000000000000600052601260045260246000fd5b7f4e487b7100000000000000000000000000000000000000000000000000000000600052602260045260246000fd5b7f4e487b7100000000000000000000000000000000000000000000000000000000600052604160045260246000fd5b6000601f19601f8301169050919050565b7f4552433732313a207472616e7366657220746f206e6f6e20455243373231526560008201527f63656976657220696d706c656d656e7465720000000000000000000000000000602082015250565b7f4552433732313a207472616e736665722066726f6d20696e636f72726563742060008201527f6f776e6572000000000000000000000000000000000000000000000000000000602082015250565b7f4552433732313a20746f6b656e20616c7265616479206d696e74656400000000600082015250565b7f4552433732313a207472616e7366657220746f20746865207a65726f2061646460008201527f7265737300000000000000000000000000000000000000000000000000000000602082015250565b7f4552433732313a20617070726f766520746f2063616c6c657200000000000000600082015250565b7f4552433732313a206f70657261746f7220717565727920666f72206e6f6e657860008201527f697374656e7420746f6b656e0000000000000000000000000000000000000000602082015250565b7f4552433732313a20617070726f76652063616c6c6572206973206e6f74206f7760008201527f6e6572206e6f7220617070726f76656420666f7220616c6c0000000000000000602082015250565b7f4552433732313a2062616c616e636520717565727920666f7220746865207a6560008201527f726f206164647265737300000000000000000000000000000000000000000000602082015250565b7f4552433732313a206f776e657220717565727920666f72206e6f6e657869737460008201527f656e7420746f6b656e0000000000000000000000000000000000000000000000602082015250565b7f45524337323155524953746f726167653a2055524920736574206f66206e6f6e60008201527f6578697374656e7420746f6b656e000000000000000000000000000000000000602082015250565b7f4552433732313a206d696e7420746f20746865207a65726f2061646472657373600082015250565b7f45524337323155524953746f726167653a2055524920717565727920666f722060008201527f6e6f6e6578697374656e7420746f6b656e000000000000000000000000000000602082015250565b7f4552433732313a20617070726f76656420717565727920666f72206e6f6e657860008201527f697374656e7420746f6b656e0000000000000000000000000000000000000000602082015250565b7f4552433732314d657461646174613a2055524920717565727920666f72206e6f60008201527f6e6578697374656e7420746f6b656e0000000000000000000000000000000000602082015250565b7f4552433732313a20617070726f76616c20746f2063757272656e74206f776e6560008201527f7200000000000000000000000000000000000000000000000000000000000000602082015250565b7f4552433732313a207472616e736665722063616c6c6572206973206e6f74206f60008201527f776e6572206e6f7220617070726f766564000000000000000000000000000000602082015250565b612b118161242a565b8114612b1c57600080fd5b50565b612b288161243c565b8114612b3357600080fd5b50565b612b3f81612448565b8114612b4a57600080fd5b50565b612b5681612494565b8114612b6157600080fd5b5056fea2646970667358221220f54e33b2519e9ade8368f851765cb8d3db27cd5f06a596928e140637c9a72c3264736f6c63430008040033",
	"linkReferences": {},
	"deployedLinkReferences": {}
}